{"abi":[{"type":"function","name":"checkcalldata","inputs":[{"name":"a","type":"uint16","internalType":"uint16"},{"name":"b","type":"uint16","internalType":"uint16"},{"name":"c","type":"uint16","internalType":"uint16"},{"name":"d","type":"uint16","internalType":"uint16"},{"name":"e","type":"uint16","internalType":"uint16"},{"name":"f","type":"uint16","internalType":"uint16"},{"name":"g","type":"uint16","internalType":"uint16"},{"name":"h","type":"uint16","internalType":"uint16"}],"outputs":[],"stateMutability":"nonpayable"},{"type":"function","name":"doble","inputs":[{"name":"a","type":"uint8","internalType":"uint8"},{"name":"b","type":"uint8","internalType":"uint8"}],"outputs":[],"stateMutability":"nonpayable"},{"type":"function","name":"increment","inputs":[{"name":"times","type":"uint8","internalType":"uint8"}],"outputs":[],"stateMutability":"nonpayable"},{"type":"function","name":"number","inputs":[],"outputs":[{"name":"","type":"uint8","internalType":"uint8"}],"stateMutability":"view"},{"type":"function","name":"setNumber","inputs":[{"name":"newNumber","type":"uint8","internalType":"uint8"}],"outputs":[],"stateMutability":"nonpayable"}],"bytecode":{"object":"0x6080604052348015600e575f5ffd5b506104328061001c5f395ff3fe608060405234801561000f575f5ffd5b5060043610610055575f3560e01c8063110012ab1461005957806318559e19146100755780636fb9f9d2146100915780638381f58a146100ad578063d6b46330146100cb575b5f5ffd5b610073600480360381019061006e919061022e565b6100e7565b005b61008f600480360381019061008a919061026c565b610163565b005b6100ab60048036038101906100a691906102ce565b61017f565b005b6100b5610189565b6040516100c2919061038e565b60405180910390f35b6100e560048036038101906100e0919061026c565b61019a565b005b5f5f90505b8260ff168160ff16101561015e575f5f90505b8260ff168160ff161015610150575f5f81819054906101000a900460ff168092919061012a906103d4565b91906101000a81548160ff021916908360ff1602179055505080806001019150506100ff565b5080806001019150506100ec565b505050565b805f5f6101000a81548160ff021916908360ff16021790555050565b5050505050505050565b5f5f9054906101000a900460ff1681565b5f5f90505b8160ff168160ff1610156101f0575f5f81819054906101000a900460ff16809291906101ca906103d4565b91906101000a81548160ff021916908360ff16021790555050808060010191505061019f565b5050565b5f5ffd5b5f60ff82169050919050565b61020d816101f8565b8114610217575f5ffd5b50565b5f8135905061022881610204565b92915050565b5f5f60408385031215610244576102436101f4565b5b5f6102518582860161021a565b92505060206102628582860161021a565b9150509250929050565b5f60208284031215610281576102806101f4565b5b5f61028e8482850161021a565b91505092915050565b5f61ffff82169050919050565b6102ad81610297565b81146102b7575f5ffd5b50565b5f813590506102c8816102a4565b92915050565b5f5f5f5f5f5f5f5f610100898b0312156102eb576102ea6101f4565b5b5f6102f88b828c016102ba565b98505060206103098b828c016102ba565b975050604061031a8b828c016102ba565b965050606061032b8b828c016102ba565b955050608061033c8b828c016102ba565b94505060a061034d8b828c016102ba565b93505060c061035e8b828c016102ba565b92505060e061036f8b828c016102ba565b9150509295985092959890939650565b610388816101f8565b82525050565b5f6020820190506103a15f83018461037f565b92915050565b7f4e487b71000000000000000000000000000000000000000000000000000000005f52601160045260245ffd5b5f6103de826101f8565b915060ff82036103f1576103f06103a7565b5b60018201905091905056fea26469706673582212204463c1fcddd549447e6b5d2a7bc28caa994073536dac21843fcbd991c1e1587764736f6c634300081e0033","linkReferences":{}},"methodIdentifiers":{"checkcalldata(uint16,uint16,uint16,uint16,uint16,uint16,uint16,uint16)":"6fb9f9d2","doble(uint8,uint8)":"110012ab","increment(uint8)":"d6b46330","number()":"8381f58a","setNumber(uint8)":"18559e19"},"id":0}